:020000040800F2
:10000000C80600204D020008111700080917000853
:100010000D17000851040008211900080000000015
:100020000000000000000000000000001917000898
:100030005504000800000000151700081D170008EF
:1000400067020008670200086702000867020008EC
:1000500067020008670200086702000867020008DC
:1000600067020008670200086702000867020008CC
:1000700067020008670200086702000867020008BC
:1000800067020008670200086702000867020008AC
:10009000670200086702000867020008670200089C
:1000A000670200086702000867020008670200088C
:1000B000670200086702000867020008670200087C
:1000C000670200086702000867020008670200086C
:1000D000670200086702000867020008670200085C
:1000E0005904000867020008670200086702000858
:1000F000670200086702000867020008670200083C
:10010000670200086702000867020008670200082B
:100110002517000867020008670200086702000848
:10012000670200086702000867020008670200080B
:1001300067020008000000000000000067020008DD
:1001400067020008670200086702000867020008EB
:1001500067020008670200086702000867020008DB
:1001600067020008670200086702000867020008CB
:10017000670200086702000800000000000000009D
:100180006702000800F002F800F050F814A696E8A4
:10019000000CB244B344DA4501D100F047F8BAE8A4
:1001A0000F000FA696E83000A5EB040504EB060748
:1001B000AAEB0704A7F101074FEA15154FEA34141B
:1001C000A4F10104AC4201D300F030F813F0010FA8
:1001D00018BFFB1A43F0010300F001F8DBE71847F2
:1001E0000019000020190000103A24BF78C878C117
:1001F000FAD8520724BF30C830C144BF04680C602D
:1002000070470000704700000023002400250026EE
:10021000103A28BF78C1FBD8520728BF30C148BF69
:100220000B6070471FB51FBD10B510BD00F0D6F8AC
:100230001146FFF7F7FF01F087FB00F0F4F803B475
:10024000FFF7F2FF03BC00F0FBF80000094880470D
:1002500009480047FEE7FEE7FEE7FEE7FEE7FEE7A8
:10026000FEE7FEE7FEE7FEE704480549054A064BC0
:10027000704700002117000885010008C800002011
:10028000C8060020C8020020C802002053EA020C61
:1002900000F069802DE9F04B4FF00006002B1FBFE6
:1002A000B3FA83F503FA05F424FA05F65E4012BFAB
:1002B0001643B2FA82F502FA05F4C5F120051EBF15
:1002C00022FA05FC44EA0C04203556EA044C4FEAB5
:1002D000144418BF641C4FF000084FF0000990420E
:1002E00071EB030C39D3002919BFB1FA81F701FA78
:1002F00007F6B0FA80F700FA07F6C7F120071EBF2D
:1003000020FA07FC46EA0C062037B6FBF4FCA7EB04
:100310000507103F07F01F0BCBF120062CFA06F65D
:100320000CFA0BFB44BFB3460026202FA4BF5E4649
:100330004FF0000B5BEA060C08BF4FF0010B19EB06
:100340000B0948EB0608ABFB027C06FB02CC0BFB5F
:1003500003CCC01B71EB0C01C1E70B4602464146C2
:100360004846BDE8F08B13B5084318BF4FF0FF3087
:100370000146AFF30080BDE81C407047014901F021
:10038000D1BA0000BC0000204FF0000200B51346B7
:1003900094469646203922BFA0E80C50A0E80C50A5
:1003A000B1F12001BFF4F7AF090728BFA0E80C5056
:1003B00048BF0CC05DF804EB890028BF40F8042B4F
:1003C00008BF704748BF20F8022B11F0804F18BFBC
:1003D00000F8012B7047704770477047754600F072
:1003E0002BF8AE4605006946534620F007008546C7
:1003F00018B020B5FFF738FFBDE820404FF00006E9
:100400004FF000074FF000084FF0000BAC46ACE88F
:10041000C009ACE8C009ACE8C009ACE8C00921F0EB
:1004200007018D46704710B50446AFF300802046A3
:10043000BDE81040FFF703BF0048704710000020E0
:1004400001491820ABBEFEE72600020070470000FD
:10045000FEE700007047000080B54FF4805000F0C8
:100460007DF84FF40050BDE8804000F077B8000000
:1004700070B5866D044600F05DF994F835100229D8
:1004800028D105462068216C026822F0160202601D
:10049000426922F08002426109B9A16C19B1016878
:1004A00021F008010160016821F00101016000BF35
:1004B00020680068C00715D000F03CF9401B0628F2
:1004C000F6D320206065032084F83500002184F8ED
:1004D000341070BD802060650120002184F8341044
:1004E00070BD00BFE06D3F2101FA00F0B060012057
:1004F00084F835000020002184F8341070BD00001D
:1005000090F83510022909D1052180F835100068CE
:10051000016821F0010101600020704780214165E0
:100520000120704710B50146B0F5005F06D0B1F567
:10053000805F18BF10BD322401E000BF312440F6B7
:100540000040C4F2020000F0E9F8002818BF30248F
:100550002046BDE81040FFF711BF000043F61441EC
:10056000C4F201010A68024214BF08607047FFF735
:10057000D9BF00002DE9F04F83B00F68002F00F0C5
:10058000C98000F13E4642F2000C00F1200206F163
:10059000FF76C4F2020C00924FEAB62509226045AC
:1005A00008BF0822082D4FF000054FF000084FF05B
:1005B000000938BF4FEAB62201920AE00F6809F13C
:1005C000010937FA09F208F1020805F1040500F003
:1005D000A180012202FA09FE17EA0E0AEED0D1F834
:1005E00004C003220CF003077E1E02FA08F4012E59
:1005F0006FEA040B12D88468CE6804EA0B0406FA8A
:1006000008F634438460446824EA0E06CCF30014F0
:1006100004FA09F42643466004E000BF032F01D129
:1006200003271EE0C6688C6806EA0B0604FA08F485
:100630002643022FC66014D16FF00302009E02EA27
:10064000590756F807C005F01C040F220B69A24099
:100650002CEA0202A3401A43F251D1F804C00CF074
:100660000307026807FA08F302EA0B021A431CF4B4
:10067000403F0260A2D0002243F644030292C4F23B
:1006800002031A6843F6004442F480421A601A6872
:10069000C4F2010402F480420292029A29F0030299
:1006A0004FF6084C2244CFF6FF7C52F80C3005F090
:1006B0000C070F26BE40B343019E06FA07F73B43E3
:1006C00042F80C30A2684B6842EA0A0743F60C4C29
:1006D000DE0258BF22EA0A07A760C4F2010CDCF868
:1006E00000209E0242EA0A0758BF22EA0A07CCF815
:1006F000007062689E0342EA0A0758BF22EA0A07AE
:1007000067602268DB0342EA0A0758BF22EA0A0749
:10071000276053E703B0BDE8F08F00000069084090
:1007200018BF012070470000002A08BF090481613A
:100730007047000040F2C000C2F20000006870473D
:1007400040F2000040F2C001C2F20000C2F200011B
:1007500000780A68104408607047000080B543F6CE
:100760000040C4F20200016841F4007101600168B8
:1007700041F480610160016841F4807101600320EF
:1007800000F086F80F2000F005F800F027F80020B0
:1007900080BD000070B540F20006C2F2000640F2D3
:1007A00008013278C2F200014FF47A730968B3FB92
:1007B000F2F20446B1FBF2F1084600F03DFB0F2CCB
:1007C0004FF0010508D838B94FF0FF30214600221C
:1007D000002500F031F87460284670BD82B000201A
:1007E00043F640010190C4F202014A6842F480429B
:1007F0004A604A6802F480420192019A00900868B7
:1008000040F080500860086800F080500090009828
:1008100002B07047002848BF704700F01F01012256
:1008200002FA01F11C2202EAD0004EF20012CEF2CE
:10083000000281507047000010B54EF60C5CCEF2FD
:10084000000CDCF80030C3F3022E8EF00704042CF9
:1008500028BF0424BEF103034FF0FF3E0EFA04F458
:1008600038BF0023A14399400EFA03F39A43114382
:1008700000F00F0200F160430901043A03F56443FC
:100880006244002848BF02F10C03197010BD00003B
:100890004EF60C51CEF200010A684FF6FF031A40E3
:1008A00060F30A2242F0806040F0FD7008607047FB
:1008B000002804BF012070472DE9F04143F60808E5
:1008C000C4F202080446D8F8F8030D4600F00F0001
:1008D000884208D288F8F853D8F8F80300F00F00DF
:1008E000A84240F0AF802068810717D5410705D5A1
:1008F000D8F8001041F4E051C8F80010010705D500
:10090000D8F8001041F46041C8F80010D8F8001081
:10091000A26821F0F0011143C8F80010C00721D1EE
:10092000D8F8F80300F00F00A84208D988F8F85367
:10093000D8F8F80300F00F00A84240F08380206848
:1009400041071DD4000725D4D8F8000000F00C00A2
:1009500008282ED004284FD147F64000C0F27D1061
:100960004EE000BF606858F8081C022862D00128D9
:1009700066D189035CBF0120BDE8F08166E000BF5D
:10098000D8F80010E26821F4E0511143C8F80010D3
:100990000007D9D5D8F80000216920F4604040EA6A
:1009A000C100C8F80000D8F8000000F00C000828CA
:1009B000D0D158F8040C58F8041C58F8043C4902EB
:1009C00047F64001C0F27D1100F03F02C3F38810EA
:1009D0005CBF42F20041C0F2F401A1FB0001002320
:1009E000FFF754FC58F8041C0222C1F3014102EB4A
:1009F0004101B0FBF1F003E042F20040C0F2F4002C
:100A0000D8F8001041F6C622C1F30311C0F6000267
:100A1000515C40F2080220FA01F140F20400C2F2F7
:100A200000000068C2F200021160FFF7B3FE002070
:100A3000BDE8F08189015CBF0120BDE8F08105E0DF
:100A4000890703D40120BDE8F08100BFD8F8001069
:100A500021F003010843C8F80000FFF76BFE0646CB
:100A600041F28837D8F80000616800F00C00B0EB64
:100A7000810F3FF455AFFFF75DFE801BB842F1D9FF
:100A80000320BDE8F081000040F2080043F60801B1
:100A9000C2F20000C4F202010068096841F6D622E1
:100AA000C1F38221C0F60002515CC84070470000CB
:100AB00040F2080043F60801C2F20000C4F202014D
:100AC0000068096841F6D622C1F34231C0F600023F
:100AD000515CC84070470000002804BF01207047E7
:100AE0002DE9F04182B00446007843F60006C007C5
:100AF000C4F2020635D0B06800F00C00042809D119
:100B0000306880032DD5606858BB012002B0BDE875
:100B1000F08100BFB06800F00C00082802D17068B6
:100B20004002EDD46068B0706568FFF703FE002DE9
:100B3000054613D03068800313D4FFF7FBFD401B3C
:100B40006428F7D9032002B0BDE8F081FFF7F2FD79
:100B5000401B64284FF0030000F2208130688003BE
:100B6000F4D4207880071BD5B06810F00C0F09D0A2
:100B7000B06800F00C00082840F0988070684002CF
:100B800000F194803068800703D5E068012840F0C8
:100B9000D5803068216920F0F80040EAC10030605B
:100BA000207800073AD42078400751D4A56985B34E
:100BB000B06800F00C00082840F0DC80012D00F047
:100BC000BD807068E16900F480028A4240F0B6801E
:100BD000216A00F03F028A4240F0B08047F6C071BF
:100BE000626A0140B1EB821F40F0A880A16A4FF613
:100BF000FF73C903994300F44032A1F580318A4262
:100C000040F09C80E16A00F07060B0EB016F40F052
:100C10009580002002B0BDE8F08100BF6069002827
:100C200000F090800020C4F247200121C0F8801E0F
:100C3000FFF780FD054600BF706F8007B3D4FFF754
:100C400079FD401B0228F7D9032002B0BDE8F081EE
:100C5000306C5FEAC0080AD400200190306C40F08C
:100C600080503064306C00F080500190019847F261
:100C70000007C4F20007386840F4807038603868B4
:100C8000C0052FD4386840F480703860FFF752FDFB
:100C9000054600BF3868C00524D4FFF74BFD401B54
:100CA0000228F7D9032002B0BDE8F081E0680028EF
:100CB00040F20000C4F2472000F080800121016072
:100CC000FFF738FD054600BF306880073FF561AF8C
:100CD000FFF730FD401B0228F6D9032002B0BDE823
:100CE000F08100BFA06886F87000A568FFF722FDBC
:100CF000002D054641F2883713D000BF306F8007C2
:100D000012D4FFF717FD401BB842F7D9032002B0F9
:100D1000BDE8F081FFF70EFD401BB8424FF0030025
:100D20003CD8306F8007F5D4B8F1000F3FF53EAFE7
:100D3000306C20F08050306438E700BF012002B0F2
:100D4000BDE8F0810020C4F247200021C0F8801ED9
:100D5000FFF7F0FC054600BF706F80077FF523AFFB
:100D6000FFF7E8FC401B0228F6D9032002B0BDE8DB
:100D7000F08100BF0027C4F2472700203866FFF744
:100D8000D9FC022D05460DD13068800128D5FFF72A
:100D9000D1FC401B64284FF00300F5D902B0BDE838
:100DA000F08100BF306880017FF533AFFFF7C2FCF0
:100DB000401B64284FF00300F4D9EFE700210160E5
:100DC000FFF7B8FC054600BF306880077FF5E8AE46
:100DD000FFF7B0FC401B02284FF00300F4D9DDE719
:100DE000706848F20001CFF2BC0104F11C0500EA72
:100DF000010C2ECDE46A41EA0C01ED034FF6FF70C1
:100E0000114325EA000041EA8311A0F5803041EA50
:100E100004610843706001203866FFF78BFC0446CC
:100E2000306880013FF5F5AEFFF784FC001B6428B5
:100E30004FF00300F4D9B1E7411E0020B0EB116F71
:100E40001CBF012070474EF21002CEF2000251602A
:100E50004EF62351CEF20001F0230B700721906073
:100E6000116070477047000070470000B0B582B055
:100E700001680A68CC684B6902F02F05202D04F048
:100E8000200505D125B102B0BDE8B04000F056BC48
:100E90005FEA027C1EBF03F0010E04F4907313EBB3
:100EA0000E0341D1036BD50618D5012B16D114F0D2
:100EB000100313D0002201920A6801924A6801923D
:100EC000019A496949064BD4818DC28DC38D002B8F
:100ED00018BF914240F0F48102B0B0BD13062DD589
:100EE00014F080032AD090F84120212AF4D182689E
:100EF000B2F5805F03D10269002A00F06782026ABE
:100F0000531C036212784A60C28C013A1304C284F3
:100F1000E2D1C86820F08000C860C86840F0400096
:100F2000C86002B0B0BD00BFD30718BF14F480730F
:100F300040F0D080530700F1D380D8E05206CBD5E3
:100F400014F04002C8D0CA6822F04002CA602021D2
:100F500080F8411002B0BDE8B04000F0D3BB00BF44
:100F6000C16B0A68526893B2002BB5D0858DAB4235
:100F7000B2D2C285C969B1F5807F00F0A080016856
:100F800051E8031F026821F4807142E80313DBB1CA
:100F9000016851E8031F026821F4807142E80313DD
:100FA00093B1016851E8031F026821F4807142E89F
:100FB00003134BB1016851E8031F026821F48071EB
:100FC00042E80313002BDAD1016851E8051F0268DB
:100FD00021F0010142E80513BBB3016851E8051F88
:100FE000026821F0010142E8051373B3016851E87A
:100FF000051F026821F0010142E805132BB30168C7
:1010000051E8051F026821F0010142E80513002B99
:10101000DAD11AE0016851E8051F026821F04001A9
:1010200042E80513DBB1016851E8051F026821F0B1
:10103000400142E8051393B1016851E8051F0268B9
:1010400021F0400142E805134BB1016851E8051F4A
:10105000026821F0400142E80513002BDAD120217B
:1010600080F8421000210163016851E8031F026803
:1010700021F0100142E80313DBB1016851E8031FBE
:10108000026821F0100142E8031393B1016851E8AE
:10109000031F026821F0100142E803134BB10168FD
:1010A00051E8031F026821F0100142E80313002BEE
:1010B000DAD1C16B04460846FFF7DAF9204602216F
:1010C0004163818DC28D891A89B202B0BDE8B040FA
:1010D000FFF7C8BE436C43F001034364530706D5D2
:1010E000BEF1000F03D0436C43F002034364930747
:1010F00006D5BEF1000F03D0436C43F004034364F4
:10110000BCF1000F06D55EEA050303D0436C43F043
:1011100008034364436C002B3FF4DEAE920605D512
:1011200025B1044600F00AFB216820464969426C5B
:1011300001F0400102F00802891800F0B98000BFF8
:10114000016851E8031F026821F4907142E803131B
:10115000BBB3016851E8031F026821F4907142E8B3
:10116000031373B3016851E8031F026821F49071FF
:1011700042E803132BB3016851E8031F026821F40E
:10118000907142E80313002BDAD11AE0016851E8AC
:10119000051F026821F0010142E80513DBB1016877
:1011A00051E8051F026821F0010142E8051393B1DF
:1011B000016851E8051F026821F0010142E80513AA
:1011C0004BB1016851E8051F026821F0010142E8B6
:1011D0000513002BDAD1016B012924D1016851E8F4
:1011E000031F026821F0100142E80313DBB101681C
:1011F00051E8031F026821F0100142E8031393B184
:10120000016851E8031F026821F0100142E803134E
:101210004BB1016851E8031F026821F0100142E858
:101220000313002BDAD1202180F842100021016342
:1012300001684969490640F1C380016851E8051F0A
:10124000026821F0400142E80513DBB1016851E872
:10125000051F026821F0400142E8051393B10168BF
:1012600051E8051F026821F0400142E805134BB127
:10127000016851E8051F026821F0400142E80513AA
:10128000002BDAD1C16B002900F09A8041F2317253
:10129000C0F60002044608460A65FFF731F9002847
:1012A0003FF41AAEE06B016D02B0BDE8B0400847F4
:1012B0000446FFF7D9FD0020606402B0B0BD00BF56
:1012C000891A00BF026852E8032F036822F4907263
:1012D00043E80325BDB3026852E8032F036822F4F4
:1012E000907243E8032575B3026852E8032F036840
:1012F00022F4907243E803252DB3026852E8032FCD
:10130000036822F4907243E80325002DDAD11AE035
:10131000026852E8052F036822F0010243E8052520
:10132000DDB1026852E8052F036822F0010243E8AC
:10133000052595B1026852E8052F036822F00102E5
:1013400043E805254DB1026852E8052F036822F0F5
:10135000010243E80525002DDAD1202280F8422041
:1013600000220263026852E8032F036822F0100291
:1013700043E80325DDB1026852E8032F036822F039
:10138000100243E8032595B1026852E8032F036871
:1013900022F0100243E803254DB1026852E8032F02
:1013A000036822F0100243E80325002DDAD102225F
:1013B00089B2426302B0BDE8B040FFF753BD00BF41
:1013C00002B0BDE8B040FFF74FBD00BF026A32F87F
:1013D000023B6FF35F234B60026295E5002804BF78
:1013E0000120704710B5044690F8410028B900204C
:1013F00084F84000204600F021F8242084F84100C1
:101400002068C16821F40051C160204600F016FA3E
:101410002068016921F490410161416921F02A01AC
:101420004161C16841F40051C16000202021606425
:1014300084F8411084F84210606310BD80B586B016
:1014400044F600410068C4F200010022884205927F
:10145000CDE903220292019202D006B080BD00BF06
:1014600043F630000092C4F20200036943F4002303
:101470000361036903F400230093009B0092026858
:1014800042F0010202600068022200F001000090B8
:1014900000980320029201220190CDE90320082048
:1014A000059001F5DA3001A9FFF764F83420012135
:1014B0000022FFF7C1F93420FFF7ACF906B080BD78
:1014C00090F84230202B07D100294FF0010318BFBC
:1014D000002A05D11846704702231846704700BFFE
:1014E00000230363816222218285C285436480F8E0
:1014F00042100169006819B1C16841F48071C1608E
:10150000416941F001014161C16841F02001C160C0
:10151000184670472DE9F04140F27008C2F2000809
:10152000454615F8047B41F200060124C4F2020688
:1015300024EA0702A6F580508021FFF7F5F807F0AE
:10154000020084EA500230468021FFF7EDF807F0F0
:10155000040084EA900230464FF48061FFF7E4F81B
:10156000284641460122BDE8F041FFF7A9BF00002F
:101570002DE9F04381B0044690F84100202809D1BC
:1015800000294FF0010018BF002A07D101B0BDE8C3
:10159000F08300BF022001B0BDE8F083002060644A
:1015A00021201D460E4684F841001746FFF7C2F879
:1015B000A784E784A1688146B1F5805F02D12069E4
:1015C00000285DD037460020E28C2168002A5DD0DB
:1015D0006A1C24D0002D4AD0804600BF086800064F
:1015E00008D4FFF7A7F8A0EB0900A8427AD8216831
:1015F000C868F3E717B117F8010B04E038F8020BDD
:1016000000276FF35F204860E08C0138E084E08CB5
:101610000028E3D13AE000BF0A68120609D40A683C
:10162000120606D40A6812065CBF0A685FEA026204
:10163000F2D51FB117F8012B05E000BF30F8022BDF
:1016400000276FF35F224A60E28C013AE284E28C69
:10165000002AE4D11AE000BF30F8022B00276FF314
:101660005F224A60E28C013AE284E28C72B10A683D
:10167000120635D5002FEFD017F8012BF1E700BF88
:1016800000273046E28C2168002AA1D10868400674
:101690001ED42DB3681C14D1086840062AD40868EB
:1016A000400627D40868400624D4086840064FF056
:1016B0000000F1D50DE000BF2068C1680068400659
:1016C00018D4FFF737F8A0EB0900A842F4D909E0D5
:1016D0000020202184F8411001B0BDE8F08300BF54
:1016E000FFF728F80320202184F8411001B0BDE85D
:1016F000F08300BF0020202184F8411001B0BDE834
:10170000F083000070470000FEE70000FEE70000E5
:10171000FEE700007047000070470000FFF710B8B8
:101720007047000040F27400C2F20000FFF79EBB59
:10173000806B0021C185C184FFF796BB81B090F812
:101740004210222921D183680246B3F5805F09D176
:1017500052F8281F52F8183C002B63D003685B68CE
:101760000AE000BF52F8281F13B90369002BF5D017
:1017700003685B6803F07F030B701168013111602F
:10178000C18D01390A04C18502D001B0704700BF84
:101790000168CA6822F02002CA60CA6822F4807216
:1017A000CA604A6922F001024A61202180F8421091
:1017B00000214163026B012A3CD10163016851E8B9
:1017C000031F026821F0100142E80313DBB1016836
:1017D00051E8031F026821F0100142E8031393B19E
:1017E000016851E8031F026821F0100142E8031369
:1017F0004BB1016851E8031F026821F0100142E873
:101800000313002BDAD101680A68D20606D500223C
:1018100000920A680092496800910099818D01B098
:10182000FFF720BB026852686FF35F2221F8022B9A
:101830008162A5E701B0FFF76DBE000010B5044658
:101840000068D4E902C22369016921F440511143BF
:101850000161626943EA0C01E3691143C2681943FB
:1018600049F20C639A431143C1604169A26921F4B2
:10187000407141F20043114340F48062C4F201031D
:101880009A42416102D1FFF713F901E0FFF7FCF83A
:10189000E3694FF69C7C62681921C0F6FF7CB3F5C2
:1018A000004F01FB00F01FD15100B0FBF1F048F2F6
:1018B0001F51C5F2EB11A0FB01235A090CF1805313
:1018C00002FB0300322303EBC000A0FB01014FF435
:1018D000F87000EA111000EB0210C1F34211084445
:1018E0002168886010BD00BF9100B0FBF1F048F2A4
:1018F0001F51C5F2EB11A0FB01235A0902FB0C009A
:10190000322303EB0010A0FB0101F02000EA51108C
:1019100000EB0210C1F3431108442168886010BD38
:10192000FEE7000080B582B0019040F27000C2F284
:101930000000043001A901224FF0FF33FFF718FE29
:10194000019802B080BD000092B0FEF707FF06AC20
:10195000201D2C21FEF718FD022006900120099081
:1019600010200A90002520460C95FFF7B5F828B105
:10197000EFF3108072B600BFFEE700BF0F20CDE985
:10198000010501A80021CDE903550595FEF790FF5B
:1019900020B1EFF3108072B6FEE700BF002743F6D8
:1019A00030000A97CDE90877CDE906770197C4F2B0
:1019B0000200016841F2000841F001010160016884
:1019C000C4F2020801F00101019101990197016837
:1019D000A8F5805541F0100101600168002201F076
:1019E00010010191019901970168802641F00801D9
:1019F00001600068802100F00800019001982846ED
:101A0000FEF792FE40464FF4906100224FF4906939
:101A1000FEF78AFE069606AE012428463146CDE939
:101A200007470997FEF7A6FD40463146CDE90694E3
:101A3000CDE90877FEF79EFD4FF4405006904FF435
:101A40004410CDE90707A8F580603146FEF792FD06
:101A5000282000210022FEF7EFFE2820FEF7DAFE04
:101A600040F27006C2F20006A8F5E231304640F8B6
:101A7000041F4FF416510C22C0E90117C0E9037787
:101A8000C0E90527C761FFF7A9FC28B1EFF3108073
:101A900072B600BFFEE700BF301D31460122FFF7DE
:101AA0000FFD284680210122FEF73EFE40468021A0
:101AB0000122FEF739FE40464FF480610122FEF715
:101AC00033FE00BFFEE7000000000000000001023E
:101AD00003040607080900000000010203040000D7
:101AE000001B00080000002010000000E8010008B2
:101AF000101B000810000020B806000008020008B3
:101B000001000000100000000024F40000000000AC
:040000050800018569
:00000001FF
